{"abi":[{"type":"function","name":"settleBatch","inputs":[{"name":"recipients","type":"address[]","internalType":"address[]"},{"name":"amounts","type":"uint256[]","internalType":"uint256[]"},{"name":"settlementId","type":"bytes32","internalType":"bytes32"}],"outputs":[],"stateMutability":"payable"},{"type":"function","name":"settled","inputs":[{"name":"","type":"bytes32","internalType":"bytes32"}],"outputs":[{"name":"","type":"bool","internalType":"bool"}],"stateMutability":"view"},{"type":"event","name":"BatchSettled","inputs":[{"name":"settlementId","type":"bytes32","indexed":true,"internalType":"bytes32"},{"name":"transferCount","type":"uint256","indexed":false,"internalType":"uint256"},{"name":"totalAmount","type":"uint256","indexed":false,"internalType":"uint256"}],"anonymous":false},{"type":"error","name":"AlreadySettled","inputs":[{"name":"settlementId","type":"bytes32","internalType":"bytes32"}]},{"type":"error","name":"EmptyBatch","inputs":[]},{"type":"error","name":"InvalidValue","inputs":[]},{"type":"error","name":"LengthMismatch","inputs":[]},{"type":"error","name":"TransferFailed","inputs":[{"name":"to","type":"address","internalType":"address"},{"name":"amount","type":"uint256","internalType":"uint256"}]},{"type":"error","name":"ZeroRecipient","inputs":[]}],"bytecode":{"object":"0x608060405234801561000f575f80fd5b5061045c8061001d5f395ff3fe608060405260043610610028575f3560e01c8063845741bc1461002c578063d945af1d14610041575b5f80fd5b61003f61003a366004610360565b610083565b005b34801561004c575f80fd5b5061006f61005b3660046103ce565b5f6020819052908152604090205460ff1681565b604051901515815260200160405180910390f35b835f8190036100a55760405163c2e5347d60e01b815260040160405180910390fd5b8083146100c8576040516001621398b960e31b0319815260040160405180910390fd5b5f8281526020819052604090205460ff16156100ff576040516358cb522560e11b8152600481018390526024015b60405180910390fd5b5f805b82811015610187575f88888381811061011d5761011d6103e5565b905060200201602081019061013291906103f9565b90505f878784818110610147576101476103e5565b60200291909101359150506001600160a01b0382166101795760405163d27b444360e01b815260040160405180910390fd5b929092019150600101610102565b503481146101a857604051632a9ffab760e21b815260040160405180910390fd5b5f838152602081905260408120805460ff191660011790555b828110156102d3575f8888838181106101dc576101dc6103e5565b90506020020160208101906101f191906103f9565b6001600160a01b031687878481811061020c5761020c6103e5565b905060200201356040515f6040518083038185875af1925050503d805f8114610250576040519150601f19603f3d011682016040523d82523d5f602084013e610255565b606091505b50509050806102ca57888883818110610270576102706103e5565b905060200201602081019061028591906103f9565b878784818110610297576102976103e5565b604051630e21dcbb60e11b81526001600160a01b03909416600485015260200291909101356024830152506044016100f6565b506001016101c1565b50604080518381526020810183905284917f5904095e03bb06c45ce8e4e6184b1f4190e644f54353c5e1009a45286f1fdd58910160405180910390a250505050505050565b5f8083601f840112610328575f80fd5b50813567ffffffffffffffff81111561033f575f80fd5b6020830191508360208260051b8501011115610359575f80fd5b9250929050565b5f805f805f60608688031215610374575f80fd5b853567ffffffffffffffff8082111561038b575f80fd5b61039789838a01610318565b909750955060208801359150808211156103af575f80fd5b506103bc88828901610318565b96999598509660400135949350505050565b5f602082840312156103de575f80fd5b5035919050565b634e487b7160e01b5f52603260045260245ffd5b5f60208284031215610409575f80fd5b81356001600160a01b038116811461041f575f80fd5b939250505056fea26469706673582212204ac4bbdb23bcd688f6d0b9595435fff5cc2a86fc1bd63f701a509c49a83e324964736f6c63430008180033","linkReferences":{}},"methodIdentifiers":{"settleBatch(address[],uint256[],bytes32)":"845741bc","settled(bytes32)":"d945af1d"},"id":16}